:020000040800F2
:10000000F87F002035610008395D00083B5D00087D
:100010005B5D00085D5D00085F5D0008000000009A
:10002000000000000000000000000000351B000878
:10003000615D000800000000DD1A0008635D000833
:10004000C9610008CD610008D1610008D5610008D0
:10005000D96100086F5D0008DD610008E1610008FA
:10006000E5610008E9610008ED610008F161000840
:10007000F5610008F9610008FD61000801620008EF
:1000800005620008096200080D620008116200089C
:1000900015620008196200081D620008216200084C
:1000A00025620008296200082D62000831620008FC
:1000B0007B5D000835620008396200083D62000877
:1000C0004162000845620008496200084D6200086C
:1000D0005162000855620008596200085D6200081C
:1000E0006162000865620008696200086D620008CC
:1000F0007162000875620008796200087D6200087C
:100100008162000885620008896200088D6200082B
:100110009162000895620008715D0008996200080C
:100120009D620008A1620008A5620008A96200089B
:10013000AD620008B1620008B5620008B96200084B
:10014000BD620008C1620008C5620008C9620008FB
:10015000CD620008D1620008D5620008D9620008AB
:10016000DD620008E1620008E5620008E96200085B
:10017000ED620008F1620008F5620008000000006E
:10018000F9620008FD6200082DE9F04385B0040023
:100190000D0016001F00B6B2B00000F05BFF8146F4
:1001A000B9F1000F0DD0602000F054FF8046B8F187
:1001B000000F02D0C8F8309005E0484600F0CEFFAE
:1001C00001E05FF00008B8F1000F13D000200390A9
:1001D000CDF808800D9801900C9800903B00B6B2C5
:1001E00032002900200000F00AF8404600F061F8D3
:1001F000012001E05FF0FF3005B0BDE8F0832DE99C
:10020000F84305000F0090461E005FEA8801A52212
:100210000A9CD4F83090484601F04AF8206B10EB65
:100220008800B0F104085FEAD8085FEAC80818F04F
:100230000700002807D0102080F31188BFF34F8FEC
:10024000BFF36F8FFEE7002000E0401C102806D2AD
:10025000C15D021982F83410C1570029F5D1002080
:1002600084F84300089F072F00D30627E762E7645E
:1002700000202065201D01F05DF814F1180001F048
:1002800059F82461D7F10700A0616462002060651D
:100290000020A065002084F85C0032002900404660
:1002A00001F08AF820600998002800D00460BDE8B9
:1002B000F18310B5040001F00EF9DFF8880500683D
:1002C000401CDFF880150860DFF8B40500680028DE
:1002D0000AD1DFF8AC050460DFF868050068012882
:1002E00011D100F08DFB0EE0DFF8980500680028C2
:1002F00009D1E06ADFF888150968C96A884202D323
:10030000DFF87C050460DFF880050068401CDFF83A
:1003100078150860DFF8700500686064DFF86C0528
:1003200000680121E26A91400843DFF86015086027
:10033000211DDFF85C05E26A142303FB020000F0D4
:10034000FCFF01F0E5F8DFF83C05006800280FD05D
:10035000DFF82C050068C06AE16A884208D25FF0C5
:100360008050DFF898160860BFF34F8FBFF36F8F90
:1003700010BD10B504000020002C14D0DFF8C40517
:100380000068002807D0102080F31188BFF34F8F3A
:10039000BFF36F8FFEE700F087F80021200000F028
:1003A000F5FD00F089F8002808D15FF08050DFF8F3
:1003B0004C160860BFF34F8FBFF36F8F10BD38B579
:1003C0000400002C07D1102080F31188BFF34F8F59
:1003D000BFF36F8FFEE7DFF8A8040068844201D105
:1003E000002024E001F077F8656901F091F8DFF86A
:1003F00064060068854204D0DFF85C060068854228
:1004000001D1022013E0DFF85406854206D1A06A2C
:10041000002801D103200AE0022008E0DFF8F804F8
:10042000854201D0002D01D1042000E0012040B21E
:1004300032BD00B583B0DFF8540901900020009070
:1004400000238022DFF8381A0FF28D50FFF79CFE50
:10045000012801D101F0DAF801281AD1102080F327
:100460001188BFF34F8FBFF36F8F5FF0FF30DFF85E
:10047000141A08600120DFF80C1408600020DFF86F
:10048000541508600020DFF8D81A086000F0BDFF9E
:1004900007BD10F1010FFBD1102080F31188BFF3CD
:1004A0004F8FBFF36F8FFEE7DFF898040068401CA2
:1004B000DFF890140860704738B500250024DFF895
:1004C00084040068002807D1102080F31188BFF34E
:1004D0004F8FBFF36F8FFEE700F0FDFFDFF864047E
:1004E0000068401EDFF85C140860DFF858040068FC
:1004F00000285AD1DFF84C030068002829D154E0C5
:10050000DFF87809C068C56815F1180000F03CFFF5
:10051000281D00F039FFDFF8740300680121EA6A42
:1005200091400843DFF864130860291DDFF8600379
:10053000EA6A142303FB020000F0FFFEE86ADFF81A
:1005400040130968C96A884203D30120DFF8181AEA
:100550000860DFF8280900680028D1D1002D01D0FB
:1005600000F03FFBDFF8FC090568002D0ED000F01D
:100570006FF8002803D00120DFF8EC1908606D1E29
:10058000002DF4D10020DFF8DC190860DFF8D8096D
:100590000068002809D001245FF08050DFF85C1467
:1005A0000860BFF34F8FBFF36F8F00F0B1FF2000E3
:1005B00032BDDFF82004006870472DE9F0410400E7
:1005C0008846150000260727FFF76EFF9D48006844
:1005D000804538D37F1E0122AD48142101FB07015D
:1005E000242000FB064000F0B2FA8619002FF1D15A
:1005F0000222DFF860040168242000FB064000F0BE
:10060000A6FA86190222DFF850040168242000FBB4
:10061000064000F09CFA86190422BF49242000FB02
:10062000064000F094FA86190322DFF830142420E3
:1006300000FB064000F08BFA8619002D03D0DFF88E
:100640002C0900682860FFF737FF3000BDE8F08113
:1006500070B50024DFF8EC020068002875D1DFF8DF
:1006600074030068451CDFF86C030560002D22D17F
:10067000DFF8E00300680068002807D0102080F34E
:100680001188BFF34F8FBFF36F8FFEE7DFF8C4030E
:100690000068DFF8C4130968DFF8B8231160DFF8D9
:1006A000B8130860DFF8C8080068401CDFF8C018FD
:1006B000086000F096FADFF8CC070068854238D36E
:1006C00020E0301D00F060FEB06A002803D016F173
:1006D000180000F059FE6D4800680121F26A91404F
:1006E00008436A490860311D6948F26A142303FB14
:1006F000020000F022FEF06A61490968C96A884276
:1007000000D30124DFF84C0300680068002805D1FD
:100710005FF0FF30DFF86C1708600AE0DFF83403A1
:100720000068C068C66870688542CAD2DFF854178E
:100730000860574852490968C96A142202FB01003F
:100740000068022808D3012406E0DFF818080068D2
:10075000401CDFF810180860DFF80C08006800285B
:1007600000D00124200070BD76480068002804D025
:100770000120DFF8F41708604BE00020DFF8E817ED
:100780000860DFF8DC070068DFF8E8170860DFF8CA
:10079000E8070068DFF8DC17096888420BD23848A0
:1007A0000068416DDFF8CC2712685118DFF8C827C0
:1007B0001268891A4165DFF8BC070068DFF8B817CE
:1007C000086032480068B0FA80F0D0F11F0030496C
:1007D000142202FB00110968002907D1102080F3C0
:1007E0001188BFF34F8FBFF36F8FFEE728491422A4
:1007F00002FB0010416849684160416810F108023D
:10080000914202D14168496841604068C0681C4912
:100810000860704710B50C00002807D1102080F345
:100820001188BFF34F8FBFF36F8FFEE7DFF85017CC
:100830000968183100F08DFD0121200000F0A6FBB1
:1008400010BD0000AC7B002038B50C00150000285E
:1008500007D1102080F31188BFF34F8FBFF36F8F44
:10086000FEE7DFF8A8170968183100F066FD002DD3
:1008700001D05FF0FF342900200000F087FB31BD7C
:100880009C7B0020B87B0020C87B0020B47B00202C
:10089000D478002010B5C068C468002C07D110209F
:1008A00080F31188BFF34F8FBFF36F8FFEE714F112
:1008B000180000F069FD23480068002816D1201DAB
:1008C00000F062FDDFF8BC0600680121E26A914099
:1008D0000843DFF8B0160860211DDFF8AC06E26AB5
:1008E000142303FB020000F028FD05E014F11801B9
:1008F000DFF8880500F021FDDFF884060068C06A93
:10090000E16A884205D201200121DFF870261160DA
:1009100000E0002010BD0000E47A0020002807D18C
:10092000102080F31188BFF34F8FBFF36F8FFEE766
:10093000DFF83C1609680160DFF8D41609684160E9
:1009400070470000D47B002038B504000D00002C57
:1009500007D1102080F31188BFF34F8FBFF36F8F43
:10096000FEE7002D07D1102080F31188BFF34F8FD1
:10097000BFF36F8FFEE700F0AEFD164800682968F0
:1009800011F1010F01D100241AE0DFF8E415096824
:100990002268914204D06168884201D301240FE0AB
:1009A0006168411A2A68914209D22968081A616867
:1009B000081828602000FFF7B1FF002400E00124A0
:1009C00000F0A6FD200032BD0120DFF8B015086060
:1009D00070470000B07B002080B500F041F8DFF8E0
:1009E000A80500680228F8D35FF08050DFF82416CD
:1009F0000860BFF34F8FBFF36F8FEEE704ED00E0A9
:100A000010B5002407E0DFF88005142101FB040085
:100A100000F081FC641C072CF5D3DFF8FC0500F026
:100A20007AFCDFF8F80500F076FCDFF8500400F0FF
:100A300072FCDFF8EC0500F06EFC084800F06BFC7F
:100A4000DFF8D40503490860DFF8D005DFF8D415D6
:100A5000086010BDA07B0020A47B0020F87A002055
:100A600010B520E00024FFF727FD002C1BD100F07B
:100A700032FDDFF8AC05C068C468201D00F084FCBE
:100A8000DFF8A4050068401EDFF89C150860DFF859
:100A90009C050068401EDFF89415086000F038FDE2
:100AA000200000F095F8DFF884050068002808D0E1
:100AB000FFF7FAFCDFF8680500680028D2D10124AE
:100AC000D1E710BD2DE9F04104000D0016001F0014
:100AD000002C04D1DFF83405D0F8008000E0A046F7
:100AE000C5F8008018F134006860D8F82C0028613F
:100AF000D8F83000E861D8F84400A86095F90C00F7
:100B0000032809D1FFF7D0FCD8F82800002801D02D
:100B100002202873FFF7D0FCD8F84C006861D8F8A1
:100B20005400A8617FB2052F01D02F7303E020008D
:100B3000FFF745FC2873002E05D0D8F8300000F0F0
:100B40003CF8288401E000202884BDE8F0812DE9EC
:100B5000F84304000D00160000272868002829D05B
:100B60002800416849684160416810F108029142DB
:100B700002D14168496841604068D0F80C80280083
:100B8000416849684160416810F10802914202D110
:100B90004168496841604068D0F80C9033005BB20E
:100BA0000122242000FB07414846FFF78BFF7F1CF2
:100BB000C145E4D13800BDE8F283002101E0401CCA
:100BC000491C0278A52AFAD08908080080B270472B
:100BD00010B50400206B00F0C1FA200000F0BEFA4E
:100BE00010BDDFF84C0400680068002804D15FF0F5
:100BF000FF30A449086007E0DFF834040068C068EB
:100C0000C06840689F4908607047DFF828040068A2
:100C1000002801D1012007E0DFF81C04006800284B
:100C200001D1022000E000207047000010B5040050
:100C3000002C4FD0E06ADFF8D4130968C96A8842F3
:100C400048D2A069002806D4DFF8C0030068C06A53
:100C5000D0F10700A0616069DFF82C13E26A142369
:100C600003FB0211884230D1201D00F08DFB0028CB
:100C700012D1DFF81403E16A142202FB01000068BC
:100C8000002809D1DFF8FC0200680121E26A9140E6
:100C90008843DFF8F0120860DFF870030068C06A6C
:100CA000E062DFF8E00200680121E26A9140084357
:100CB000DFF8D0120860211DDFF8CC02E26A1423AD
:100CC00003FB020000F039FB04E0DFF8400300689A
:100CD000C06AE06210BD10B504000020002C53D0A3
:100CE000DFF89C1209688C4207D0102080F311882D
:100CF000BFF34F8FBFF36F8FFEE7216D002907D140
:100D0000102080F31188BFF34F8FBFF36F8FFEE782
:100D1000216D491E2165E16AE26C914234D0216D5A
:100D2000002931D1201D00F02FFB002812D1DFF85F
:100D30005802E16A142202FB01000068002809D170
:100D4000DFF8400200680121E26A91408843DFF841
:100D500034120860E06CE062E06AD0F10700A06144
:100D6000DFF8200200680121E26A91400843DFF8C1
:100D700014120860211DDFF81002E26A142303FB3D
:100D8000020000F0DAFA012010BD0000D07B002044
:100D900010B50400200000F049FE200000F068FEBD
:100DA00002E020210155401C0F28FAD300210155F3
:100DB000001910BD7FB5040000202070DFF8680224
:100DC00000680390DFF8600200682421484300F0C7
:100DD00041F90500002D4FD0002203992800FFF7AC
:100DE000ECFB03900020029028E0002602982421CA
:100DF00001FB005041682000FFF7CAFF0400029881
:100E00000299242202FB005080680190242000FBFC
:100E10000150008C00900298242101FB00500369CE
:100E200076B23200DFF81412200000F03DFE200000
:100E300000F01EFE04190298401C029002980399CB
:100E4000884216D20298242101FB005090F90C0030
:100E5000012806D0C9D3032807D004D3042806D01C
:100E6000C3E75226C2E74226C0E75326BEE7442620
:100E7000BCE7280000F072F97FBD0000D07A0020A6
:100E8000A8610008CC7B002070B584B0040000206D
:100E90002070DFF8940100680290DFF88C01006890
:100EA0002421484300F0D6F80500002D47D001AAC0
:100EB00002992800FFF781FB029001986421B0FBA2
:100EC000F1F001900198002836D00020009010E049
:100ED0000098242101FB00508269DFF86411200092
:100EE00000F0E2FD200000F0C3FD04190098401C52
:100EF00000900098029988421ED20098242101FB9C
:100F0000005080690199B0FBF1F60098242101FBA3
:100F1000005041682000FFF73BFF0400002ED7D0AF
:100F200033000098242101FB00508269DFF814117E
:100F3000200000F0B9FDD5E7280000F00FF97FBDD3
:100F4000DFF8C8000068002805D0DFF8C00000689E
:100F5000016D491C0165DFF8B400006870470000AE
:100F6000647B0020BC7B0020C07B0020647B0020D1
:100F7000C47B0020DC7B0020D87B0020C07B0020CD
:100F80009C7B0020B47B0020D478002070B5040046
:100F90000D001F4806681D480068001D00F0F4F9A8
:100FA00000280BD119480068274909680122C06A46
:100FB00012FA00F031EA00002349086014F1010F31
:100FC00008D1002D06D011480068011D1F4800F00F
:100FD000B4F91AE0A4190D4800684460B44207D27D
:100FE0000A480068011D0F48006800F0B2F90CE0E3
:100FF00006480068011D0E48006800F0AAF9144870
:101000000068844201D21248046070BD9C7B0020BD
:10101000B07B002004ED00E0A87A0020BC7A00201C
:10102000E47A0020A47B0020AC7B0020A87B002079
:10103000A07B0020B87B0020D47B00202461000826
:101040008061000874610008B47B0020F87A0020F9
:10105000CC7B002070B505000024FFF725FA8D48F1
:101060000068002801D100F0B3F88B480068054201
:1010700064D1002D15D089480068451915F0070F77
:101080000FD015F1080015F00701451A15F0070FEC
:1010900007D0102080F31188BFF34F8FBFF36F8FFD
:1010A000FEE7002D4AD07E480068A84246D37D481E
:1010B0007C490E6801E0300036687168A94202D2AE
:1010C00031680029F7D1734909688E4236D001682A
:1010D000724A126854183168016070480068400014
:1010E0007168491B884212D2A81910F00701002923
:1010F00007D0102080F31188BFF34F8FBFF36F8F9D
:10110000FEE77168491B4160756000F093F8644820
:1011100000687168401A6249086061480068624965
:101120000968884203D25E4800685F4908607068B9
:10113000594909680843706000203060FFF7BCF926
:1011400014F00700002807D0102080F31188BFF3A7
:101150004F8FBFF36F8FFEE7200070BD10B5040006
:10116000002C34D04D480068241A60684A49096848
:10117000084207D1102080F31188BFF34F8FBFF3CF
:101180006F8FFEE72068002807D0102080F31188B9
:10119000BFF34F8FBFF36F8FFEE760683E4909686A
:1011A000084214D02068002811D160683A490968C3
:1011B00088436060FFF778F939480068616808186B
:1011C00037490860200000F035F8FFF775F910BDC9
:1011D0004FF4F042354911F0070F05D0C91DC90879
:1011E000C900501A314A121808002E49086000211F
:1011F0002C4B59601118294A1268891AC908C9006C
:10120000244A11600022234B1B685A600022214BA4
:101210001B681A60091A41601E490968016041682B
:10122000214A116040681E4908605FF000401A4979
:10123000086070471B4900E009680A688242FBD3D6
:101240000A004B689A18824204D14A6840688018A4
:1012500048600800020043689A180B689A4211D14E
:101260000A680C4B1B689A4208D042680B685B689E
:101270009A1842600A681268026005E0054A12681E
:10128000026001E00A680260814200D00860704795
:1012900000000000687B0020747B0020C061000813
:1012A0006C7B0020447B0020707B0020D400002059
:1012B00062F30F2262F31F42401810F0030308D0BC
:1012C000C91A1FD3DB0748BF00F8012D28BF20F83B
:1012D000022D130030B414461546103928BF20E9FA
:1012E0003C00FAD8490728BF20E90C0048BF40F865
:1012F000042D890028BF20F8022D48BF00F8012DD9
:1013000030BC7047C91818BF00F8012DCB0728BFA3
:1013100000F8012D704710F1080141605FF0FF31C6
:10132000816010F10801C16010F108010161002124
:101330000160704700210161704742684A6093680C
:101340008B6093685960916008610168491C016075
:10135000704710B40B6813F1010F01D1026907E067
:1013600010F1080200E0526854682468A342FAD2DF
:1013700053684B604B6899608A60516008610168EE
:10138000491C016010BC70470169826843689A601B
:10139000426883685A604A68824201D182684A6022
:1013A000002202610868401E0860086870470268F1
:1013B000531C036011707047001F5FF0807303605F
:1013C000001F490849000160001F0FF2150101606C
:1013D00014380260001F7FF002010160203870475E
:1013E0007B48006810F1010F07D0102080F31188AE
:1013F000BFF34F8FBFF36F8FFEE7102080F311888C
:10140000BFF34F8FBFF36F8FFEE700B583B0714816
:1014100000687149884207D1102080F31188BFF31A
:101420004F8FBFF36F8FFEE76A4800686B498842B1
:1014300007D1102080F31188BFF34F8FBFF36F8F58
:10144000FEE7674801780191FF21017001788DF86E
:1014500000109DF8001011F01001624A1170072170
:10146000614A116009E060490968491E5E4A1160DD
:101470009DF8001049008DF800109DF80010090635
:10148000F1D4594909680902574A11605649096857
:1014900011F4E061544A11600199017053480068E9
:1014A00050F47000514908605048006850F0704096
:1014B0004E49086000F059F800204549086000F0E6
:1014C00053FB4B48006850F040404949086000F029
:1014D0003FFB00200EBD102080F31188BFF34F8F1B
:1014E000BFF36F8F3A480068401C3949086038489C
:1014F000006801280BD13F480068000607D0102083
:1015000080F31188BFF34F8FBFF36F8FFEE77047F3
:101510002F480068002807D1102080F31188BFF3FE
:101520004F8FBFF36F8FFEE729480068401E2849A0
:10153000086027480068002802D1002080F3118845
:10154000704780B5102080F31188BFF34F8FBFF331
:101550006F8FFFF77DF8002803D05FF0805025499A
:101560000860002080F3118801BD234800684FF413
:101570007A71B0FBF1F0401E204908600720204935
:1015800008607047EFF3058010280FD31D490968E4
:10159000405C14490978C0B2884207D2102080F319
:1015A0001188BFF34F8FBFF36F8FFEE70E480068BF
:1015B0001549096811F4E061884207D2102080F3D0
:1015C0001188BFF34F8FBFF36F8FFEE770470000A6
:1015D000C800002000ED00E071C20F4170C20F4151
:1015E00000E400E0F47B0020947B002020ED00E08C
:1015F00034EF00E004ED00E0CC00002014E000E057
:1016000010E000E0C46100080CED00E01CB500240F
:1016100000F0D1F9DFF8EC03006800280ED0DFF805
:10162000E80301900520009000234FF48072DFF85A
:10163000DC130FF2F100FEF7A7FD0400002C07D128
:10164000102080F31188BFF34F8FBFF36F8FFEE739
:10165000200016BD30B585B004001D000020002C10
:1016600007D1102080F31188BFF34F8FBFF36F8F26
:10167000FEE7DFF890331B68002B22D00091019227
:101680000294062915DAFFF7C0FA022808D10023D0
:10169000089A6946DFF86C03006800F0F2FA10E07F
:1016A000002300226946DFF85C03006800F0E9FAD5
:1016B00007E000232A006946DFF84803006800F0CD
:1016C000ABFB05B030BD70B582B004000D00DFF893
:1016D00040030068C068C668301DFFF755FEF0691A
:1016E00001281AD123002A00B0690119300000F046
:1016F00087F8002811D0002000900023220000214C
:101700003000FFF7A7FF002807D1102080F31188D1
:10171000BFF34F8FBFF36F8FFEE73000716A8847CA
:1017200073BD000080B5684600F041F8009900F0F4
:1017300003F800F084F8F6E770B582B004000D00FD
:10174000FEF7B2FE684600F047F806000098002851
:101750002AD1002D08D1A64206D3FEF7ADFE3100F6
:101760002000FFF7B0FF21E0002D08D0DFF8A40231
:1017700000680068002801D1012500E000252A004A
:10178000A11BDFF88002006800F052FDFEF794FE16
:1017900000280BD15FF08050DFF87C120860BFF3A7
:1017A0004F8FBFF36F8F01E0FEF786FE73BDDFF84A
:1017B000601209680968002901D1012100E00021B7
:1017C000C9B201600068002804D191480068C0686F
:1017D000006800E00020704738B50400FEF7E9FE1D
:1017E00005008E480068854204D200F0A5F801206B
:1017F000206001E00020206088480560280032BD9C
:1018000010B50024416000618A420BD3D11A82696D
:10181000914201D3012410E0011D7E480068FFF7CA
:1018200098FD0AE09A4203D2994201D3012404E0D0
:10183000011D77480068FFF78CFD200010BD10B532
:1018400086B0FFE70023002201A96E48006800F07F
:101850004FFB00286ED0019800280ED502AA002A5E
:1018600007D1102080F31188BFF34F8FBFF36F8F24
:10187000FEE7916850681268904701980028E1D40B
:10188000039C6069002802D0201DFFF77DFD05A89C
:10189000FFF7A2FF0200019800280ED002280CD00A
:1018A0000BD304282DD02BD3062806D03DD30828EF
:1018B00026D002D3092824D03BE0029B0298A169DC
:1018C00009182000FFF79CFF0028BBD02000616AA8
:1018D0008847E0690128B5D10020009000230298D4
:1018E000A1690A1800212000FFF7B4FE0028A9D141
:1018F000102080F31188BFF34F8FBFF36F8FFEE787
:10190000A0E70298A061A069002807D1102080F309
:101910001188BFF34F8FBFF36F8FFEE71300A069ED
:1019200081182000FFF76CFF8CE72000FFF716FC02
:1019300088E787E706B010BD38B506E068602D611E
:10194000291D33480068FFF704FD3148006800682E
:10195000002827D02E480068C06804682C4800681A
:10196000C068C568281DFFF70FFD2800696A884711
:10197000E8690128E9D1A86900198442DED3002072
:1019800000900023220000212800FFF763FE0028BA
:1019900007D1102080F31188BFF34F8FBFF36F8FF3
:1019A000FEE7D2E71A4800681A490968184A116028
:1019B0001849086031BD80B5FFF78DFD11480068FA
:1019C00000281BD11648FFF7A6FC1648FFF7A3FC1A
:1019D00013480F49086013480E490860002210217F
:1019E000142000F018F9074908600648006800282C
:1019F00004D00D490348006800F003FCFFF788FDA0
:101A000001BD0000E87B0020EC7B0020B0610008F5
:101A1000E07B0020E47B002004ED00E0F07B002070
:101A20000C7B0020207B0020B86100085FEA000CDE
:101A3000830706D011F8013B00F8013BB3B18307DF
:101A4000F8D10A68B2F1013323EA020313F0803FB0
:101A500002BF40F8042B51F8042FF3E711F8013BC3
:101A600000F8013B13B111F8013BF9E760467047FC
:101A700000F10103810704D010F8011B89B181072F
:101A8000FAD10268B2F10131914311F0803F04BFF5
:101A900050F8042FF6E710F8011B11B110F8011BE4
:101AA000FBE7C01A704700000CB41CB5044604A83C
:101AB00001900A46009401AB694607487844183003
:101AC00000F0DCFB009A0021117000285CBF009838
:101AD000001B16BC5DF80CFBD7F8FFFFEFF3098085
:101AE000BFF36F8F244B1A681EF0100F08BF20ED54
:101AF000108A20E9F04F106008B44FF0100080F316
:101B00001188BFF34F8FBFF36F8FFEF72DFE4FF09D
:101B1000000080F3118808BC19680868B0E8F04F2D
:101B20001EF0100F08BFB0EC108A80F30988BFF3D5
:101B30006F8F7047104B19680868B0E8F04F80F35A
:101B40000988BFF36F8F4FF0000080F31188704752
:101B50000A480068006880F3088862B661B6BFF37F
:101B60004F8FBFF36F8F00DFDFF81400016841F47F
:101B700070010160704700009C7B002008ED00E0D0
:101B800088ED00E038B505000C00002D07D11020CD
:101B900080F31188BFF34F8FBFF36F8FFEE7FFF71E
:101BA0009AFC2868E96B2A6C02FB0100686000203F
:101BB000A8632868A8602868E96B491E2A6C02FBA4
:101BC0000100E8605FF0FF3085F844005FF0FF300F
:101BD00085F84500002C12D12869002817D015F18E
:101BE0001000FEF757FE002811D05FF08050DFF89C
:101BF00038160860BFF34F8FBFF36F8F07E015F102
:101C00001000FFF788FB15F12400FFF784FBFFF7B6
:101C10007FFC012032BDF8B504000D001600002C39
:101C200007D1102080F31188BFF34F8FBFF36F8F60
:101C3000FEE7002D01D1002001E005FB04F050304B
:101C4000FFF708FA0700002F08D017F1500200979D
:101C50003300DBB22900200000F002F83800F2BDAA
:101C600038B51C00049D002901D12D6000E02A60D8
:101C7000E863296401212800FFF784FF85F84C40C0
:101C800031BDF7B504000D001E000027002C07D160
:101C9000102080F31188BFF34F8FBFF36F8FFEE7E3
:101CA000002D02D1206C002801D1012000E000208D
:101CB000C0B2002807D1102080F31188BFF34F8FE6
:101CC000BFF36F8FFEE7022E02D1E06B012801D136
:101CD000012000E00020C0B2002807D1102080F3CE
:101CE0001188BFF34F8FBFF36F8FFEE7FEF78DFFB5
:101CF000002802D10298002801D1012000E0002034
:101D0000C0B200280CD1102080F31188BFF34F8F90
:101D1000BFF36F8FFEE7200000F01FFAFEF7CCFB49
:101D2000FFF7D9FBA06BE16B884201D3022E26D1CD
:101D300032002900200000F0BAF9616A00290FD0B2
:101D400014F12400FEF7A6FD002814D05FF08050A7
:101D5000DFF8D4140860BFF34F8FBFF36F8F0AE032
:101D6000002808D05FF08050DFF8BC140860BFF393
:101D70004F8FBFF36F8FFFF7CBFB01204BE0029833
:101D8000002803D1FFF7C4FB002044E0002F03D15B
:101D90006846FEF7C3FD0127FFF7BAFBFEF784FB99
:101DA000FFF799FB94F9440010F1010F02D10020D4
:101DB00084F8440094F9450010F1010F02D100208D
:101DC00084F84500FFF7A4FB02A96846FEF7BCFDB6
:101DD00000281AD1200000F005FA00289BD00299B3
:101DE00014F11000FEF716FD200000F0B6F9FEF722
:101DF00063FB002894D15FF08050DFF82C1408605A
:101E0000BFF34F8FBFF36F8F8AE7200000F0A5F973
:101E1000FEF752FB0020FEBD2DE9F84305000E0041
:101E200014001F00002D07D1102080F31188BFF38C
:101E30004F8FBFF36F8FFEE7002E02D1286C002872
:101E400001D1012000E00020C0B2002807D11020FD
:101E500080F31188BFF34F8FBFF36F8FFEE7022F20
:101E600002D1E86B012801D1012000E00020C0B2BE
:101E7000002807D1102080F31188BFF34F8FBFF3E4
:101E80006F8FFEE7FFF77EFBEFF31188102080F3E2
:101E90001188BFF34F8FBFF36F8FA86BE96B884238
:101EA00001D3022F1FD195F945903A003100280047
:101EB00000F0FDF84FFA89F919F1010F0DD1686AA8
:101EC00000280ED015F12400FEF7E4FC002808D00D
:101ED000002C06D00120206003E019F1010085F8F4
:101EE0004500012000E0002088F31188BDE8F2835E
:101EF0002DE9F44183B006000C001D000027002EE0
:101F000007D1102080F31188BFF34F8FBFF36F8F7D
:101F1000FEE7002C02D1306C002801D1012000E046
:101F20000020C0B2002807D1102080F31188BFF331
:101F30004F8FBFF36F8FFEE7FEF767FE002802D1D9
:101F40000398002801D1012000E00020C0B2002841
:101F50000CD1102080F31188BFF34F8FBFF36F8F28
:101F6000FEE7300000F0F9F8FEF7A6FAFFF7B3FA43
:101F7000D6F83880B8F1000F39D0F768210030006A
:101F800000F0D6F8002D1BD1B8F10100B063306825
:101F9000002802D1FEF7D4FF70603069002822D0FB
:101FA00016F11000FEF776FC00281CD05FF0805080
:101FB000DFF874120860BFF34F8FBFF36F8F12E02A
:101FC000F760706A00280ED016F12400FEF762FC5C
:101FD000002808D05FF08050DFF84C120860BFF393
:101FE0004F8FBFF36F8FFFF793FA01205CE00398E8
:101FF000002803D1FFF78CFA002055E0002F03D111
:102000006846FEF78BFC0127FFF782FAFEF74CFAD1
:10201000FFF761FA96F9440010F1010F02D1002098
:1020200086F8440096F9450010F1010F02D1002016
:1020300086F84500FFF76CFA03A96846FEF784FCB2
:10204000002825D1300000F0BFF8002889D0306882
:10205000002806D1FFF73FFA7068FEF7E7FDFFF7AB
:1020600057FA039916F12400FEF7D4FB300000F074
:1020700074F8FEF721FA00287FF478AF5FF0805003
:10208000DFF8A4110860BFF34F8FBFF36F8F6DE7C8
:10209000300000F062F8FEF70FFA300000F094F81C
:1020A00000283FF463AF002004B0BDE8F0812DE9C3
:1020B000F041040017000025A66B206C002809D110
:1020C000206800282FD16068FEF705FE050000207B
:1020D000606028E0002F0FD1226CA768380000F064
:1020E00099FFA068216C0818A060A0686168884208
:1020F00019D32068A06016E0226CD4F80C8040460A
:1021000000F088FFE068216C401AE060E068216818
:10211000884203D26068216C401AE060022F02D12D
:10212000002E00D0761E701CA0632800BDE8F08150
:1021300010B50C00016C00290ED0C168026C51185A
:10214000C160C1684268914201D30168C160026CFC
:10215000C168200000F05EFF10BD38B50400FFF735
:10216000BAF994F9455008E014F12400FEF792FB07
:10217000002801D0FEF728FC6D1E6DB2012D02DB98
:10218000606A0028F0D15FF0FF3084F84500FFF767
:10219000BFF9FFF7A0F994F9445008E014F11000DA
:1021A000FEF778FB002801D0FEF70EFC6D1E6DB225
:1021B000012D02DB20690028F0D15FF0FF3084F8A8
:1021C0004400FFF7A5F931BD10B50400FFF783F90E
:1021D000A06B002801D1012400E00024FFF798F94A
:1021E000200010BD10B50400FFF775F9A06BE16B7E
:1021F000884201D1012400E00024FFF789F9200082
:1022000010BD002200E0521C082A0BD2074B53F8E5
:102210003230002BF7D1054B43F83210034911EB54
:10222000C20148607047000004ED00E0F079002032
:1022300070B504000D001600FFF74DF994F9440045
:1022400010F1010F02D1002084F8440094F94500F8
:1022500010F1010F02D1002084F84500FFF758F972
:10226000A06B002805D13200290014F12400FEF7EC
:10227000EBFA2000FFF771FF70BD00002DE9F04F71
:10228000A1B08046002017461D4602910B900DF12B
:10229000440A6FF000490AE017F8011B0298C04792
:1022A0000028029000F0AB820B98401C0B9038780D
:1022B00008B90B98A5E22528EED1002005900690DC
:1022C0000790089009900A9001E040F0010017F88B
:1022D000011F2029F9D023290DD02B2904D02D2925
:1022E00006D030290AD00CE040F0020080B2EEE7C0
:1022F00040F00400FAE740F00800F7E740F0100073
:10230000F4E72A290ED12968296051F8042B2960A5
:10231000002A0D9204D5514240F004000D9180B284
:102320007F1C11E000210D9109E00D99494505D070
:1023300001EB810302EB430130390D917F1C3A78A8
:10234000A2F130010A29F0D339782E2903D04FF0B9
:10235000FF310C911DE017F8011F2A2907D12968C8
:1023600029607F1C51F8042B29600C9211E0002198
:102370000C9109E00C99494505D001EB810302EB72
:10238000430130390C917F1C3A78A2F130010A29BF
:10239000F0D3ADF838000FF66040397800F076FEE3
:1023A00008B117F8010B8DF83A009DF83A0068283B
:1023B00002BF39786829622005D06C2804BF3878BC
:1023C0006C2803D171208DF83A007F1C11A804906D
:1023D00017F8014BB4F1250029D01C3800F0C28059
:1023E000001F022840F2BE80133800F0E380093855
:1023F00000F0B880801E00F04A81401E00F023816A
:10240000401E022840F2AE80001F00F01C81401FD9
:1024100079D0401E00F0CE80401E24D0C01E0BD0CC
:10242000801E00F0C780C01E00F0C48039E1252066
:102430008DF8440001203DE12868286050F8046BC5
:10244000286003960C9C002C04D53046FFF710FB47
:10245000044606E022460021304600F023FE00B18B
:10246000841B069427E1296829603C2451F8040B59
:1024700029600021CDE9000111A80390DDE90001E8
:10248000049E11B908B90C9AB2B10206120FA0EB62
:1024900002123032D2B2631E3A2AA8BF2732000994
:1024A0009A5540EA0170090908BF00281C4603D06C
:1024B000039AA3199A42E8D3A0190390C4F13C01EE
:1024C0000C980691814209DA401A08904FF6EF7194
:1024D000BDF838000840ADF83800ECE0002840F1C5
:1024E000EA809DF8380000F01400102840F0E380E6
:1024F0000D98059A801A089A801A441A012CC0F285
:10250000DA800894D7E09DF83A0062281AD068284B
:1025100006D06A280CD06C281CD0712808D019E08D
:102520002868286050F8041B28600B980880C2E0D7
:102530002868286050F8042B28600B98C117C2E95E
:102540000001B8E02868286050F8041B28600B9848
:102550000870B0E02868286050F8041B28600B98C9
:102560000860A8E02868C01D20F007022A60D2E9B0
:10257000000108322A60CDE90001002902D5059842
:102580002D210AE0BDF83800810702D505982B21DE
:1025900003E0C00705D50598202100F80A10401C6B
:1025A000059011A80599081803902146684600F087
:1025B000E5F980E09DF83A006C280DD0712818BF2D
:1025C0006A2809D12868C01D20F007022A60D2E9D4
:1025D000000108322A6005E02968296051F8040BDF
:1025E00029600021CDE900019DF83A00682803D157
:1025F000DDE9000180B20BE0622803D1DDE90001D2
:10260000C0B205E0742818BF7A2804D1DDE90001C2
:102610000021CDE900019DF8380000072ED5DDE945
:102620000001002908BF002828D044F020007828A5
:1026300024D10598302100F80A10401C411C059156
:1026400000F80A401AE09DF83A00294600F0DCF84C
:10265000CDE90001002902DA05982D210AE0BDF834
:102660003800810702D505982B2103E0C00705D566
:102670000598202100F80A10401C059011A8059922
:10268000081803902146684600F0F5F813E0012091
:1026900005902868286050F8041B28608DF84410C5
:1026A00009E025208DF84400012005901CB18AF82E
:1026B0000140022005900D980599401A0899401A8A
:1026C0000699401A0999401A0799401A0A99441A1A
:1026D0009DF83800400710D420208DF840000026D7
:1026E00009E0012310AA6946404600F06EFC00286C
:1026F00040F08580761CA642F3DB059E0DF1440B6D
:102700000AE01BF8011B0298C0470028029076D00F
:102710000B98401C0B90761E002EF2D130208DF8C5
:1027200040004FF0000B089E09E0012310AA694603
:10273000404600F04AFC002861D10BF1010BB34583
:10274000F3DB069EDDF80CB00AE01BF8011B0298D3
:10275000C0470028029052D00B98401C0B90761E68
:10276000002EF2D130208DF840004FF0000B099E72
:1027700009E0012310AA6946404600F026FC002823
:102780003DD10BF1010BB345F3DB03980699079E8E
:1027900001EB000B09E01BF8011B0298C0470290F7
:1027A00068B30B98401C0B90761E002EF3D130209E
:1027B0008DF840004FF0000B0A9E08E0012310AA9C
:1027C0006946404600F001FCC8B90BF1010BB34566
:1027D000F4DB9DF8380040077FF569AD20208DF8C7
:1027E0004000002600E0761CA642BFF660AD012343
:1027F00010AA6946404600F0E8FB0028F3D04FF0ED
:10280000FF3021B0BDE8F08F622826D068281DD0A7
:102810006A2808D06C2827D0712804D0742823D0C7
:102820007A280CD020E00868C01D20F0070008605E
:10283000D0E90023083008601946104670470A683E
:102840000A6052F8040B0A60002170470A680A60A7
:1028500052F8040B0A6000B20BE00A680A6052F8F2
:10286000040B0A6040B204E00A680A6052F8040BE4
:102870000A60C11770472DE9FA4E05460A462F69CE
:102880006F2A08BF082405D041F02000782814BF23
:102890000A2410243C26D5E90001642A18BF692ABD
:1028A00081468A4605D1002903DAD9F100096AEB8D
:1028B0004A0ABAF1000F08BFB9F1000F0CD1286B1A
:1028C00050B9082C36D195F83800000732D53020A1
:1028D0003B2687F83B002DE0E31748465146224649
:1028E00000F00CFCA4FB0023A9EB02023032D2B2B0
:1028F000A6F1010B3A2A5E4603DB9DF80030513BFE
:102900009A180BF8072081465FEA010A08BFB9F15F
:10291000000F03D0E868F1198842DDD3082C09D1F3
:1029200095F83800000705D5F05D302802D0761EF6
:102930003020F055C6F13C00A861F119E960296B1F
:10294000884208DA081A28624FF6EF71288F08408B
:102950002887BDE8F38E00290ED595F8381001F0D0
:102960001401102908D1696B6A69891A2A6A891ABF
:102970000E1A012EA8BF2E62BDE8F38E2DE9F24F8C
:1029800004468EB0D4E90001CDE9020104AF9DF800
:10299000380040F0200BBBF1610F0AD0206B0028FB
:1029A00048BF062004D408BFBBF1670F01D1012046
:1029B00020636168C1F30A5040F2FF7290421CD15B
:1029C000080304BF2068002809D10320A0619DF8F6
:1029D000380061381A2836D30FF2306108E003203E
:1029E000A0619DF8380061381A2829D30FF21461CC
:1029F000E068032200F00EFBBEE1012816DA204653
:102A000000F0F3FB012811DB00250020BBF1610F72
:102A100020D1E168302201F8012B4A1CE2609DF8C8
:102A20003820612A0CBF782258220FE0626840F2F9
:102A3000FE3161F31E52451A62604FF0FF30E5E748
:102A40000FF2BC51D4E70FF2C051D1E70A706169AF
:102A5000891C616110B90026002584E1BBF1610F7A
:102A600040F09780206B00284CBF2126461CD4E9FB
:102A700000ABDDE902010022002300F0D7FB36B2F3
:102A80003ABF8BF00040CDE902A0CDE902AB06F1E0
:102A900001082D1F8DF810200DF1110700E0C71D52
:102AA000B8F1010F33DBDDE902010022002300F061
:102AB000D5FB2CD21C2102A800F0E8FBDDE90201C5
:102AC00000F06EFCA8F10708B8F1010F814609DBA0
:102AD00000F092FC02460B46DDE9020100F0A4FC86
:102AE000CDE90201F81D072105E009F00F0200F809
:102AF000012D4FEA2919B9F1010F01DB491EF4D567
:102B0000491E5CBF002200F8012DF9D5C7E70DF181
:102B10001100391AB142B8BF0E4636B230000DF17D
:102B200011072FD4884206DA04A9411849780829E8
:102B3000A8BF0F2100DA002104AA821800E0761E47
:102B400012F80139401E8B42F9D00F2904D104A993
:102B500041184A78521C4A70002802D504AF761CEE
:102B60002D1D36B2701E0DD4C1190A783032D2B282
:102B70003A2A03DB9DF838303A3B9A18401E01F898
:102B80000129F2D5206B002840F1ED80701E2063F2
:102B9000E9E0DDE902010022002300F047FB3CBF31
:102BA00081F00041CDE902012DB247F29750684310
:102BB0004B49DFF8309190FBF1F52DB2C5F1070AD2
:102BC000BAF1010F90461CDBDDE902675FEACA70CB
:102BD00007D542464B463046394600F0E5FC0646EE
:102BE0000F464046494642464B464FEA6A0A00F0C5
:102BF000DBFCBAF1000F80468946E7D1CDE90267D8
:102C000024E0CAF1000A0026374F14E05FEACA70D8
:102C100007D542464B463046394600F0C5FC0646CD
:102C20000F464046494642464B4600F0BDFC4FEA3F
:102C30006A0A80468946BAF1000FE7D1DDE9020150
:102C400032463B4600F082FDCDE90201BBF1660F42
:102C50000CBF05F10A000620216BDFF890904618A2
:102C6000142EA8BF132630208DF810000DF1110787
:102C7000012E3DDBDDE9020100F0A8FB07F10801B0
:102C800004220A23B0FBF3F303EB8307A0EB470016
:102C9000303001F8010C0A20B3FBF0F000EB8007A4
:102CA000A3EB47033033521E01F8023DE9D1083E41
:102CB000012E01F10807DBDBDDE9020100F086FBF4
:102CC00000F0A4FB02460B46DDE9020100F0ACFB7C
:102CD00000224B4600F068FCCDE90201CAE700BFC4
:102CE000A0860100000024400000F03F84D79741F7
:102CF0000DF11100381A0DF1110702E0401E6D1E92
:102D00007F1C39783029F9D0BBF1660F02D12DB282
:102D1000691C04E0BBF1650F0CBF01210021226B8F
:102D20008E1836B2B042B8BF064636B231001AD459
:102D3000814204DAC85D3528A8BF392000DA302086
:102D4000CA19521E00E0761E12F80139491E83424C
:102D5000F9D0392802D1C85D401CC855002902D5D8
:102D60007F1E761C6D1C2DB29DF83810009533B275
:102D70003A46204600F003F80FB0BDE8F08F2DE989
:102D8000F04786B006468A4690461D4600F027FE6C
:102D9000012D406A376B90F8009002DA01250FF29E
:102DA00070284AF02000BDF93840662808BF641C2E
:102DB00012D0672876D114F1040F79DBBC4277DAA0
:102DC00096F83800641C000702D4BD42B8BF2F46F5
:102DD00024B23F1B48BF002724B2F068B169012C20
:102DE00021DA4A1C30230B54012F03DA96F83810ED
:102DF000090702D502F80090521CB261E742B8BF41
:102E00007C4224B26142E7197162AF42B8BF3D46CD
:102E1000B3692DB2F5612A464146181800F0FAF858
:102E2000781BB062BAE00818A54216DA2A46414675
:102E300000F0F0F8B1696918601B012FB161706290
:102E400003DA96F83800000705D5F06801F800901D
:102E5000F069401CF061B762A0E02246414600F0F4
:102E6000D9F8B06920182D1B012F03DA96F8381015
:102E7000090703D5F16800F80190401C2DB2B0613C
:102E8000AF42B8BF3D46F068B3692DB22A4604EBA5
:102E90000801181800F0BEF8B0692818B061781B56
:102EA00070627BE0BAF1610F14D14FF0700A16E046
:102EB000BD4204DA96F83810090758BF2F467F1E26
:102EC00048BF0027BAF1670F14BF4FF0450A4FF013
:102ED000650A04E0BAF1410F08BF4FF0500AB1692A
:102EE000F0684A1CB261012F18F8013B0B5403DA59
:102EF00096F83810090715D5531CB36102F80090F5
:102F0000012F0FDB6D1E2DB2AF42B8BF3D462DB273
:102F10002A464146181800F07DF8B0692818B061BB
:102F2000781B7062F068B1690918200081F800A070
:102F300004D42B20487001F1020804E02D224A70CD
:102F400001F102086442002502AF08E00A22684647
:102F500000F05EFD019807F8010B6D1C009C21B28A
:102F60000129F3DA022D06DA4AF02000652804BFB1
:102F7000302008F8010B4DB9302008F8010B07E0AC
:102F80006D1E02A8285C303008F8010B012DF7DA1D
:102F9000F068B1690818A8EB0000F06196F83800F5
:102FA00000F0140010280DD17069B1690818716A19
:102FB0000818F1690818B16A0818716B8842BCBF1B
:102FC000081A306206B0BDE8F087F8B504460D4631
:102FD00016461F46002004E0E86A401CE8627F1E97
:102FE000002047B116F8011BA868A0470028A86078
:102FF000F2D14FF0FF30F2BD686A6C747A4C000079
:103000006E616E004E414E00696E6600494E46008C
:103010003000000062B38B0708D0521E11F8013B4C
:1030200000F8013B00F024808B07F6D1830740F0C5
:10303000208000BF103A07D330B4B1E83810103AFE
:10304000A0E83810F9D230BC530724BFB1E808100B
:10305000A0E8081044BF51F8043B40F8043BD207F5
:1030600024BF31F8022B20F8022B44BF0B780370E9
:103070007047083A07D3B1E80810083A40F8043B13
:1030800040F804CBF7D25307E4E700000278C9B256
:103090008A421AB11CBF10F8012FF9E718BF0020AF
:1030A00070470000C9B2830706D0521E22D310F821
:1030B000013B9942F7D11FE0083A13D302F1040211
:1030C00041EA012141EA014150F8043B121F21BFAE
:1030D0004B40A3F1013C2CEA030C1CF0803FF3D0E1
:1030E000C9B2001F083210F8013B521E28BF91EAF6
:1030F000030FF8D818BF0120401E70471B4213D1A0
:10310000094236D12AB18446B0FBF2F002FB10C26C
:10311000704700F085BCFCD30022002370470B00F1
:103120000200002100207047904271EB030CF6D39F
:1031300070B5B1FA81F4B3FA83F52C1BA340C4F146
:10314000200532FA05F63343A2405FF00046E64020
:1031500002E05B085FEA3202841A71EB030524BFC8
:10316000204629467641F4D302000B0030000021AE
:1031700070BD012ACFD970B5140C20D0B1FA81F4FA
:10318000B2FA82F5C4F120046419B4F12006D6D352
:10319000B2405FF00044F440002502E052085FEACC
:1031A0003303C61A71EB020E24BF304671466441E8
:1031B0006D41F3D302000B002000290070BD0C46C6
:1031C000B1FBF2F102FB11452D0445EA1045B5FBB8
:1031D000F2F402FB145580B240EA0545B5FBF2F06B
:1031E00002FB105240EA044070BD30B4436803F063
:1031F000004201211B031B0B436004BF0368002B2B
:1032000008D10DE00368DD0F45EA440444605B002B
:103210000360491E4468E302F4D523031B0B43609B
:1032200043681A434260084630BC70474FF4001CA4
:103230001CEB410F94BF1CEB430F09E041EA030C68
:1032400050EA4C0C52EA0C0C03D2994208BF90424F
:10325000704714BF8B428242704700004FF4001C3D
:103260001CEB410F94BF1CEB430F09E041EA030C38
:1032700050EA4C0C52EA0C0C03D28B4208BF82423B
:10328000704714BF994290427047000070B50446E1
:103290000D466068C0F30A5040F2FF71884207D1C2
:1032A0006068000304BF2068002817D0022070BDAA
:1032B00020B92046FFF799FF012866DA012D0FDBC0
:1032C00040F2FF71091A8D420AD3606800284CBF92
:1032D0009FED2F0B9FED300B84ED000B012070BD97
:1032E0004142A942616806DA6FF31E51401941EA72
:1032F0000050606040E0401E63684519012205F1FE
:10330000350062F31F53352801F00041636003D399
:1033100061600020206070BD002015F11F0F04DAED
:10332000206823600022203562606A4212D0401E6D
:1033300025688041C2F12003C0439D4045EAD0701A
:1033400025686668D54006FA03F32B43236063685B
:10335000D340636062680A43B0F1004F626003D8F3
:103360000DD12078C0070AD52068401C2060206855
:1033700028B96068401C60604FF0FF3070BD606825
:10338000884204BF20680028F6D1002070BD00BF2D
:10339000000000000000F0FF000000000000F07FCF
:1033A000F446400D40EAC120490006D200F014F86E
:1033B000004248BF6FF00040604700F00DF84FF04A
:1033C000004188428CBF084640426047400D40EAB9
:1033D000C120490080F00D8040F00040490DA1F56A
:1033E0008061491C05D4D1F11F0154BFC840C017EA
:1033F00070474FF000007047010040F10980F4462B
:10340000404200F005F851F000416047010000BF64
:1034100009D0B0FA80F18840C91CC1F58461090562
:1034200001EBD02140057047F0B44FF0004591EA20
:10343000030F44BF6B4000F0F5BA00BF841A71EB74
:10344000030604D26E40001BB141121973414FF4C0
:10345000001C1CEB410F34BF7CEB430684E00C0DD9
:10346000A4EB1356362E7DDC012E43DC45EAC32344
:1034700043EA525312BFD20292025B08240545EA86
:10348000C12141EA5051D2EBC020994125D407D146
:10349000B0FA80F610FA06F164D00020203608E079
:1034A000B1FA81F6B140C6F1200220FA02F21143CE
:1034B000B0404FEAF474B4EB465434F001064FEADE
:1034C00074040AD8D6F50016760D04F00044F040D6
:1034D00061FA06F25040F1404840C00A40EA4150CB
:1034E00021F0004128BF5FEA500550F1000044EB95
:1034F000D12137E045EAC323DB0A45EAC121C90AE5
:10350000B6F120050EDD42EA0242120CC5F120069A
:1035100003FA06F6EB4042EA06056D42984161F176
:1035200000010DE062FA06F5F240554063FA06FC30
:1035300082EA0C02F3405A406D42904161EB030174
:1035400011F4801F05D1641E620502D06D00404158
:10355000494121F48011430875F1004350F1000006
:1035600041EB0451F0BC70471CEB410F15D223F026
:10357000004352EA43060BD04FEA4C0CBCEB410F20
:1035800004D80C0D661E342EB7DDEBE7801A994186
:1035900050EA410608BF0021E4E708BF1CEB430FD7
:1035A00028BF6FF00001DDE7B0B581EA030C0CF035
:1035B000004C40F2FF7515EA11541DBF15EA135770
:1035C000AC42AF4239E0E41923EA455343F4801397
:1035D000C90241F0004141EA505EC7021100A7FB59
:1035E000020200284FF00000EEFB01204FF0000126
:1035F000E3FB072118BF42F00102401800214941B6
:10360000E3FB0E01A4F580640F0302D25200404197
:10361000494154F101046CDD470872F1004250F158
:10362000000051EB0451A1F580115CBF41EA0C018F
:10363000B0BD4CEA05510020B0BD05EA1357AC42BD
:1036400014BFAF4241E050EA410E1CBF52EA430EA4
:1036500002E061460020B0BD24423C441BD15FEA39
:10366000070EF6D0090302BF01460020AEF1140E8A
:10367000B1FA81F7AEEB070401FA07FE0C37C7F188
:10368000200100FA07F7C8404EEA000E23EA45532E
:1036900043F48013A2E733F00043B3FA83F704BF87
:1036A000B2FA82FE77440B3FE41BB7F1200E2FBF26
:1036B00002FA0EF3BB40C7F1200E22FA0EFE38BF0D
:1036C00043EA0E03BA40641C82E750EA410E14BF7D
:1036D00052EA430E6FF000014FF4001717EB430F4F
:1036E0008ABF194617EB410FB5E74CEA0551002098
:1036F000B0BDD4F10104B4F120070FDAC4F1200702
:10370000520828BF42F0010210FA07F501FA07F744
:10371000E1BF2A43E0403843E1400FE0352C98DC1C
:10372000C7F1200452EA400220FA07F218BF42F023
:10373000010231FA07F0A1400A43002172F1004270
:1037400050F1000051EB0C01B0BD00002DE9F0413B
:1037500040F2FF7581EA030C0CF0004C15EA11549D
:103760001DBF15EA1357AC42AF42E9E0BC41C1F3BB
:103770001301C3F31303801A994143F4801304D255
:10378000641E4000494180185941C90241EA505124
:10379000B1FBF3F603FB1611A2FB0675D7EBC020B5
:1037A000A94102D2761E80185941C90241EA5051FE
:1037B000B1FBF3FE03FB1E11A2FB0E75D7EBC0207D
:1037C000A94103D2AEF1010E80185941890241EAA4
:1037D0009051760546EA8E2EB1FBF3F603FB1611E7
:1037E000A2FB0675D7EB8020A94102D2761E801875
:1037F0005941C90241EA50514EEA060EB1FBF3F6B7
:1038000003FB1611A2FB0675D7EBC020A94102D21B
:10381000761E80185941C90241EA5051B1FBF3F7B5
:1038200003FB1711A2FB0735D3EBC020A94167F1B9
:1038300000070CBF004247F0010766F3D5274FEAA7
:103840001E31B80814F5806414DDBD0775F100421F
:1038500050EB0E5051EB045111F5801F5CBF41EA53
:103860000C01BDE8F0814CF07F6141F0E0410020A7
:10387000BDE8F081BD076D0840EA0E5041F48011AB
:10388000D4F10104B4F120060ADAC4F120060200E2
:10389000E04001FA06F3E1401843B24015430EE060
:1038A000342C14DCC6F1200445EA40056D0820FAEA
:1038B00006F2154321FA06F0A1400D43002175F1EF
:1038C000004250F1000051EB0C01BDE8F0810020F6
:1038D0005FEA0C01BDE8F081CFB992185B41B3FA01
:1038E00083F704BFB2FA82F6BF190B3FB7F1200687
:1038F0002FBF02FA06F3BB40C7F1200622FA06F6F4
:1039000038BF3343BA401CB1E419641E2FE77F422D
:1039100031F00041B1FA81F404BFB0FA80F6A41985
:103920000B3CB4F120062FBF00FA06F1A140C4F110
:10393000200620FA06F638BF3143A0403C1B16E7AC
:10394000AC421ABF05EA1357AF4214E050EA4106F1
:103950001CBF52EA4306BFE750EA410730466146C2
:103960001CBF41EA0551BDE8F08152EA430C08BF93
:10397000C143BDE8F08100204FF4001616EB410F63
:1039800098BF16EB430F08BF16EB410F24BFC1438E
:1039900005E016EB430F0CBF61464CEA0551BDE84C
:1039A000F081000080B5134800F0A6F80FF24C0239
:1039B0000FF244010160426241600FF244028263EF
:1039C00081600FF24402C1600161416181618162E5
:1039D000C16201634163C2630164416401BD10B50A
:1039E000044800F089F80446206808B9FFF7DAFFB8
:1039F000204610BD00000020000000002E00000046
:103A000066616C73650000007472756500000000EB
:103A100091FBF2F303FB1211C0E900317047000083
:103A200070470000841A71EB030603D2001BB141FA
:103A3000121973414FF4001C1CEB410F34BF7CEB97
:103A4000430443E00C0DA4EB1356352E50DC45EA3D
:103A5000C323DB0A45EAC121C912B6F120050DDDF9
:103A600063FA05F6EB4086EA0305124218BF45F0FB
:103A70000105C01851F100010CD213E062FA06F5FD
:103A8000F2405540F3415A40B340F3405A40801849
:103A9000594107D349085FEA30005FEA350528BF7E
:103AA00045F0010501F58011420875F1004250F121
:103AB000000041EB0451F0BC4FF4001C1CEB410F23
:103AC00038BF70470020090D090570471CEB410FF6
:103AD00010D252EA43060BD0BCEB410F05D80C0DB7
:103AE000AB43661E342EB5DD02E0AB43801859416E
:103AF000F0BC7047F0BC70477047000010B5040080
:103B0000002C01D1012014E094F93900002805D1DE
:103B1000002084F83800200000F014FC022084F813
:103B20003900211D206800F03CFA012084F839009A
:103B3000002010BD0168C96851F001010268D16020
:103B40000168096851F001010068016000207047B8
:103B500010B504000800002806D004280BD008285F
:103B600010D00C2815D01BE02068C06850F002006F
:103B70002268D06014E02068C06850F00400226819
:103B8000D0600DE02068C06850F008002268D06066
:103B900006E02068C06850F010002268D060FFE79F
:103BA0000122206800F0AAFA2068DFF8FC108842A1
:103BB00004D02068DFF8F410884201D1012000E031
:103BC0000020C0B2002805D02068406C50F40040AE
:103BD000216848642068006850F00100216808608E
:103BE000002010BD10B504000800002806D00428ED
:103BF0000BD0082810D00C2815D01BE02068C06816
:103C000030F002002268D06014E02068C06830F014
:103C100004002268D0600DE02068C06830F0080021
:103C20002268D06006E02068C06830F0100022688A
:103C3000D060FFE70022206800F060FA2068DFF81B
:103C40006810884204D02068DFF86010884201D1F3
:103C5000012000E00020C0B2002811D02068006AD6
:103C600041F2111108420BD12068006A40F2444130
:103C7000084205D12068406C30F400402168486457
:103C80002068006A41F2111108420BD12068006AD5
:103C900040F24441084205D12068006840084000D5
:103CA00021680860002010BD0000014000040140B0
:103CB00010B504002068006980071AD52068C06824
:103CC000800716D57FF00200216808610120207668
:103CD0002068806910F0030F03D0200000F05EF927
:103CE00005E0200000F0ADFC200000F058F90020B5
:103CF00020762068006940071AD52068C068400710
:103D000016D57FF004002168086102202076206823
:103D1000806910F4407F03D0200000F03FF905E0F7
:103D2000200000F08EFC200000F039F90020207601
:103D30002068006900071AD52068C068000716D5FA
:103D40007FF0080021680861042020762068C0699F
:103D500010F0030F03D0200000F020F905E0200050
:103D600000F06FFC200000F01AF900202076206897
:103D70000069C0061AD52068C068C00616D57FF055
:103D8000100021680861082020762068C06910F4BE
:103D9000407F03D0200000F001F905E0200000F092
:103DA00050FC200000F0FBF800202076206800691D
:103DB000C0070AD52068C068C00706D57FF001009B
:103DC00021680861200000F0D9FA20680069000627
:103DD0000AD52068C068000606D57FF080002168FB
:103DE0000861200000F02DFD2068006940060AD51A
:103DF0002068C068400606D57FF040002168086151
:103E0000200000F0CDF82068006980060AD52068FF
:103E1000C068800606D57FF0200021680861200078
:103E200000F00EFD10BD10B5040094F93800012813
:103E300001D1022025E0012084F83800022084F816
:103E40003900002A06D0042A08D0082A0AD00C2AF1
:103E50000CD00FE0206800F061F90BE0206800F062
:103E600012F907E0206800F08FF903E0206800F005
:103E7000C5F9FFE7012084F83900002084F83800F4
:103E8000002010BD10B50400002094F9380001286E
:103E900001D1022081E0012084F83800022084F85A
:103EA00039002068806830F0770030F47F40226865
:103EB00090600868002855D0102858D020285BD082
:103EC00030285ED0402843D050282DD0602835D0EF
:103ED00070280DD0B0F5805F03D0B0F5005F16D02C
:103EE00054E020688068C008C000216888604DE008
:103EF000CB684A688968206800F0F9F92068806812
:103F000030F0770050F07700216888603EE0CB68A1
:103F10004A688968206800F0EAF92068806850F4EF
:103F200080402168886031E0CA684968206800F0F4
:103F3000ABF95021206800F0D0F927E0CA68496841
:103F4000206800F0B5F96021206800F0C6F91DE096
:103F5000CA684968206800F097F94021206800F09D
:103F6000BCF913E00021206800F0B7F90EE0102141
:103F7000206800F0B2F909E02021206800F0ADF9D6
:103F800004E03021206800F0A8F9FFE7012084F860
:103F90003900002084F83800002010BD70477047B9
:103FA000704700220268DFF8B432984212D0B0F1B4
:103FB000804F0FD0DFF8A83298420BD0DFF8A43240
:103FC000984207D0DFF8A032984203D0DFF89C3245
:103FD000984201D1012300E00023DBB2002B03D083
:103FE00032F070024B681A43DFF8703298422AD0E0
:103FF000B0F1804F27D0DFF86832984223D0DFF845
:10400000643298421FD0DFF8603298421BD0DFF84C
:104010005C32984217D0DFF85832984213D0DFF85C
:10402000543298420FD0DFF8503298420BD0DFF86C
:104030004C32984207D0DFF84832984203D0DFF87C
:104040004432984201D1012300E00023DBB2002B6F
:1040500003D032F44072CB681A4302608A68C262AD
:104060000A6882627D4A904202D0804A904201D121
:10407000012200E00022D2B2002A01D009690163C6
:1040800001214161704730B4002200230024026AFC
:1040900032F010020262036A4468826932F4E0423C
:1040A00032F440720D6852EA052233F020038D6825
:1040B00053EA0513694DA84202D06C4DA84201D1C4
:1040C000012500E00025EDB2002D10D033F0800373
:1040D000CD6853EA051333F0400334F4806434F4BC
:1040E00000644D6954EA85048D6954EA850444608E
:1040F000826149688163036230BC704710B4002359
:1041000001238B40046A34EA03030362036A12FA50
:1041100001F11943016210BC7047000030B4002265
:1041200000230024026A520852000262036A4468B3
:10413000826932F07002920892000D682A4333F0CF
:1041400002038D682B43454DA84202D0474DA8423B
:1041500001D1012500E00025EDB2002D0DD033F096
:104160000803CD682B4333F0040334F4807434F433
:1041700000744D692C438D692C4344608261496809
:104180004163036230BC704730B400220023002436
:10419000026A32F480720262036A4468C26932F0D1
:1041A0007002920892000D682A4333F400738D6800
:1041B00053EA0523294DA84202D02C4DA84201D133
:1041C000012500E00025EDB2002D10D033F400638E
:1041D000CD6853EA052333F4806334F4805434F417
:1041E00000544D6954EA05148D6954EA051444607D
:1041F000C2614968C163036230BC704730B40022B9
:1042000000230024026A32F480520262036A446886
:10421000C26932F4E04232F440720D6852EA05227B
:1042200033F400538D6853EA05330C4DA84202D095
:104230000E4DA84201D1012500E00025EDB2002D70
:1042400004D034F480444D6954EA85144460C2615A
:1042500049680164036230BC7047000000000140FF
:104260000004004000080040000C00400004014031
:104270000040014000440140004801400018004057
:10428000001C00400020004010B400230024046AF9
:10429000036A5B085B000362836933F0F00353EA4F
:1042A000021334F00A040C438361046210BC7047AB
:1042B00010B400230024036A33F0100303628369FF
:1042C000046A33F4704353EA023334F0A00454EA2E
:1042D00001148361046210BC70470022826832F0CE
:1042E000700289B251F007010A438260704710B42E
:1042F0000024846834F47F44114351EA03210C43C1
:10430000846010BC7047000000B583B02448254984
:10431000086000202349486000202249886041F25B
:1043200068002049C8601F48FFF7E8FB01200090A3
:104330000020019069461B4800F056FA1948FFF723
:10434000F9FB07BD80B500681549884215D10020EA
:1043500000901548006850F010001349086012489A
:10436000006810F010000090009800220021362014
:1043700000F0D0FA362000F0DEFA01BD09480068EE
:10438000C068C00709D509480068401C0749086093
:104390007FF00100034909680861704700000000D0
:1043A00000100040307A002040380240647B00203A
:1043B00000B593B000200090DFF88C03006850F047
:1043C0008050DFF884130860DFF87C03006810F089
:1043D00080500090009800200090DFF87003006883
:1043E00050F48040DFF864130860DFF86003006871
:1043F00010F4804000900098012006905FF4803017
:10440000079002200C905FF480000D9008200E9021
:104410004FF4A8700F90022010900720119006A86A
:1044200000F0B4FA0F2001900220029000200390C7
:104430004FF4A05004904FF480500590052101A83E
:1044400000F098FC00F06FFD00F0B7FD4FF47A71BA
:10445000B0FBF1F000F074FA042000F075FA0022CD
:104460000F215FF0FF3000F055FA13B000BD80B5AA
:1044700000F0EAFDFFF79CFF00F04EFE00F08CFE1E
:1044800000F0EEFEFFF740FF00F0EAFF00F0AAF8B0
:1044900000F049F9FBF7CDFFFEE700B5FDB0AC49F0
:1044A000AC4800F07FFFAC49AC4800F07BFFAC4962
:1044B000AC4800F077FFAC4801F02EF8A54800F0BA
:1044C0007BFFA64800F078FFA64800F075FF0021AA
:1044D000A04800F0BCFF00281AD0A44801F01CF846
:1044E000A34801F019F86846FCF764FC6946A14846
:1044F00001F012F8A04801F00FF86846FCF7C4FC80
:1045000069469C4801F008F80121924800F09FFF9D
:104510000021924800F09BFF00280AD0974800F045
:10452000FBFF00219648FFF713FB01218B4800F0A9
:104530008EFF00218B4800F08AFF00280AD09148A6
:1045400000F0EAFF04218E48FFF702FB01218548B5
:1045500000F07DFF1420FBF70CFFAFE710B582B031
:10456000C8240EE000980178874800F0D5FF009835
:104570008168864800F0D0FF00984188844800F0A8
:10458000CBFF00232200694682480068FDF7B0FC9B
:104590000128E7D04FF400717F4801F0CFF8F0E731
:1045A00010B582B04FF4967404E09DF800107B487B
:1045B00000F0B2FF00232200694679480068FDF749
:1045C00097FC0128F1D02021764801F0B7F8F1E7F7
:1045D00080B54021734801F0B1F84FF47A70FBF7D1
:1045E000C8FEF6E700B583B06F4801900120009047
:1045F00000234FF400726D496D48FBF7C5FD6D480F
:1046000001900220009000234FF400726A496B4829
:10461000FBF7BAFD6A4801900320009000234FF495
:10462000007268496848FBF7AFFD684801900420B4
:10463000009000234FF4007265496648FBF7A4FD23
:1046400007BD10B584B0040094F9180001282CD1DE
:104650000020029060480068401C5F490860002309
:1046600002AA5D494E480068FDF7D6FB0298002873
:1046700007D05FF0805059490860BFF34F8FBFF3F8
:104680006F8F00213E48FFF7ADFA3D480068406A51
:104690005349098880B210FA81F0394909684863A2
:1046A0007FF0020036490968086194F91800022871
:1046B00038D1002001904B48009000980078401CB1
:1046C0000099087000988068401C009988600098E4
:1046D0004088401C00994880002301AA69462D4863
:1046E0000068FDF799FB0198002807D05FF0805023
:1046F0003A490860BFF34F8FBFF36F8F0421204802
:10470000FFF770FA1E480068406A3549098880B290
:1047100010FA81F01A49096888637FF0020018498D
:10472000096808611FBD80B5002201210A20FDF73C
:1047300072FA1B490860002204210A20FDF76BFA77
:104740001449086001BD000040380240007000407C
:10475000595300084C7B00206F530008547B002005
:10476000855300085C7B002040600008805E0008E4
:10477000B45E000898610008E45E0008A85D0008C7
:104780006C7A0020F45D0008105F00083C5F0008B0
:10479000685F00088C7B0020001C0240945F0008CA
:1047A000887B002000100240787B002044610008D4
:1047B0009B4400087C7B0020506100085D45000898
:1047C000807B00205C610008A1450008847B0020FC
:1047D00068610008D1450008907B002004ED00E0EE
:1047E000D0000020347B002090F93820012A01D12C
:1047F000022024E0012280F83820022280F83920AB
:104800000268526832F0700203685A6002685268A7
:104810000B681A4303685A600268926832F080029B
:1048200003689A600268926849681143026891605F
:10483000012180F83910002180F8381000207047DD
:104840007047704710F00701484800684FF6FF02B4
:104850001040474A52EA0121084344490860704722
:1048600042480068C0F302207047012110F01F0287
:104870009140404A40B2400942F82010704740B28F
:10488000002808D509013C4A40B210F00F008018FA
:1048900000F8041C03E00901384A40B28154704713
:1048A00010B410F00700D0F10703052B01D3042347
:1048B00001E0D0F10703041D072C01D2002000E025
:1048C000C01E012414FA03F35B1E1940814001232A
:1048D00013FA00F0401E1040084310BC704780B52A
:1048E000411EB1F1807F01D301200EE0401E24491A
:1048F00008600F215FF0FF30FFF7C1FF0020214962
:104900000860072020490860002002BD80B5FFF73D
:1049100099FF01BD70B504000D0016000020FFF7DF
:104920009FFF32002900FFF7BBFF0100200040B2CB
:10493000FFF7A5FF70BD80B540B2FFF796FF01BD40
:1049400080B5FFF7CCFF02BD042806D10E480068F1
:1049500050F004000C49086005E00B48006830F096
:104960000400094908607047000000000CED00E0F9
:104970000000FA0500E100E018ED00E000E400E0CE
:1049800014E000E018E000E010E000E038B50400BA
:1049900000252078C0076FD5DFF86406006810F0A6
:1049A0000C0004280BD0DFF85806006810F00C004B
:1049B00008280ED1DFF84C060068400209D5DFF860
:1049C00048060068800357D56068002854D101204C
:1049D000CFE16068B0F5803F08D1DFF82C060068B1
:1049E00050F48030DFF82016086024E06068B0F5ED
:1049F000A02F10D1DFF81006006850F48020DFF8F7
:104A000008160860DFF80006006850F48030DFF810
:104A1000F81508600FE0DFF8F005006830F480302A
:104A2000DFF8E4150860DFF8E005006830F4802066
:104A3000DFF8D4150860606800280ED000F039FB5C
:104A40000500DFF8C4050068800315D400F031FBD1
:104A5000401B6528F5D303208BE100F02AFB0500FD
:104A6000DFF8A4050068800306D500F022FB401B98
:104A70006528F5D303207CE1207880072BD5DFF86B
:104A80008005006810F00C0F0BD0DFF8740500688B
:104A900010F00C00082837D1DFF8680500684002E4
:104AA00032D4DFF864050068800704D5E068012887
:104AB00001D001205DE1DFF8500500685FF0F8519A
:104AC000B1FA81F130F0F800226912FA01F10843DD
:104AD000DFF8341508602078000762D56069002887
:104AE0004CD00120DFF82415086000F0E2FA050040
:104AF000DFF81C050068800753D400F0DAFA401B89
:104B00000328F5D3032034E1E068002823D00120F6
:104B1000DFF80015086000F0CCFA0500DFF8E804C3
:104B20000068800706D400F0C4FA401B0328F5D3C0
:104B300003201EE1DFF8D00400685FF0F851B1FAFD
:104B400081F130F0F800226912FA01F10843DFF830
:104B5000B8140860BFE70020DFF8B814086000F060
:104B6000A8FA0500DFF8A00400688007B3D500F0BC
:104B7000A0FA401B0328F5D30320FAE00020DFF859
:104B80008C14086000F095FA0500DFF884040068D2
:104B9000800706D500F08DFA401B0328F5D30320CB
:104BA000E7E0207840077CD500200090DFF868041B
:104BB000006850F08050DFF860140860DFF8580497
:104BC000006810F0805000900098DFF850040068F2
:104BD00050F48070DFF84414086000F06AFA0500B1
:104BE000DFF838040068C00506D400F062FA401B04
:104BF0000328F5D30320BCE0A068012808D1DFF822
:104C00002004006850F00100DFF81414086023E06D
:104C1000A068052810D1DFF80804006850F00400EF
:104C2000DFF8FC130860DFF8F803006850F00100BB
:104C3000DFF8EC1308600FE0DFF8E40300684008D9
:104C40004000DFF8DC130860DFF8D403006830F0C0
:104C50000400DFF8CC130860A068002810D000F032
:104C600028FA0500DFF8B8030068800719D400F0BF
:104C700020FA401B41F289318842F3D3032078E0C7
:104C800000F017FA0500DFF898030068800708D5E0
:104C900000F00FFA401B41F289318842F3D3032020
:104CA00067E0A069002863D0DFF85403006810F0C3
:104CB0000C0008285AD0A069022844D10020DFF84F
:104CC0006413086000F0F5F90500DFF83C030068A4
:104CD000800106D500F0EDF9401B0328F5D3032031
:104CE00047E0DFF84403B0FA80F14FF44040B0FAF7
:104CF00080F2F020B0FA80F0E369256A2B43656A00
:104D000015FA01F11943A36A5B085B1E13FA02F25C
:104D10001143E26A12FA00F00843DFF8E812086073
:104D20000120DFF80013086000F0C3F90500DFF888
:104D3000D802006880011BD400F0BBF9401B032897
:104D4000F5D3032015E00020DFF8D812086000F04A
:104D5000B0F90500DFF8B0020068800108D500F066
:104D6000A8F9401B0328F5D3032002E0012000E04E
:104D7000002032BD70B504000D000026DFF8AC0243
:104D8000006810F00F00A8420BD2DFF8A0020570F7
:104D9000DFF89802006810F00F00A84201D001204F
:104DA000C0E02078800709D5DFF85402006830F0B1
:104DB000F000A1680843DFF8481208602078C007B7
:104DC00072D56068012806D1DFF83C0200688003D4
:104DD00015D40120A6E06068022802D0606803288C
:104DE00006D1DFF824020068800108D4012099E090
:104DF000DFF814020068800701D4012092E0DFF898
:104E0000000200688008800061680843DFF8F01144
:104E1000086000F04EF90600606801280FD1DFF845
:104E2000E001006810F00C0004283DD000F041F9CA
:104E3000801B41F289318842F1D3032072E060681F
:104E400002280FD1DFF8B801006810F00C00082824
:104E50002AD000F02EF9801B41F289318842F1D32B
:104E600003205FE0606803280FD1DFF89401006839
:104E700010F00C000C2817D000F01BF9801B41F239
:104E800089318842F1D303204CE0DFF874010068D7
:104E900010F00C0F08D000F00CF9801B41F28931A2
:104EA0008842F2D303203DE0DFF88001006810F073
:104EB0000F0085420BD2DFF874010570DFF86C013A
:104EC000006810F00F00A84201D001202AE02078ED
:104ED000400707D54A48006830F4E050E1680843CD
:104EE000474908602078000708D54548006830F435
:104EF0006040216950EAC1004149086000F017F89C
:104F00003F4909685FF07062B2FA82F2484B11F0D3
:104F1000F001D140C95CC84046490860002000F05B
:104F2000B0F8002070BD01204349086070470020A0
:104F30000020002100203248006810F00C000028FA
:104F400004D0042804D0082804D034E03B4833E0DF
:104F50003B4831E02B48006810F03F0029490968C0
:104F600049020DD527490968354AB2FBF0F047F6EA
:104F7000C07211402C4AB2FA82F2D14048430CE090
:104F8000204909682D4AB2FBF0F047F6C072114083
:104F9000254AB2FA82F2D14048431A49096811F40D
:104FA00040314FF44042B2FA82F2D140491C4900EC
:104FB000B0FBF1F000E0214870471E4800687047E0
:104FC00080B5FFF7FAFF0E4909685FF46012B2FA84
:104FD00082F21C4B11F4E051D140C95CC84002BDC3
:104FE00080B5FFF7EAFF064909685FF4E022B2FAEC
:104FF00082F2144B11F46041D140C95CC84002BD3B
:10500000083802400438024000380240800E47420F
:1050100074380240000047424038024000700040AF
:1050200070380240600047420000FE03003C02402E
:1050300014610008CC0000204C0047420024F4001A
:1050400000127A00A061000880B51B48006850F487
:105050000070194908601848006850F480601649CB
:1050600008601548006850F48070134908600320F8
:10507000FFF74CFC002000F004F800F081FB00205A
:1050800002BD10B504000D4800684FF47A71B0FB02
:10509000F1F0FFF755FC002221005FF0FF30FFF731
:1050A00039FC002010BD06480068401C0449086017
:1050B0007047034800687047003C0240CC00002065
:1050C000987B002000B587B000682E49884221D126
:1050D000002000902C48006850F010002A49086019
:1050E0002948006810F010000090009840200190BE
:1050F00002200290012003900320049007200590D5
:1051000001A9224800F01AFA8020019001A91F4845
:1051100000F014FA07B000BD80B5002000901C48D4
:10512000006850F002001A4908601948006810F041
:105130000200009000981348164908605FF4E130BF
:105140001449486000201349886000201149C86054
:105150000020104908610C200E49486100200D49CB
:10516000886100200B49C8610A4800F041FB01BD7D
:1051700001B54FF6FF7301226946064800F073FB44
:10518000009802BD00100140443802400004024073
:1051900030380240B079002000B587B00020009080
:1051A0002C48006850F080002A49086029480068AF
:1051B00010F08000009000980020009025480068C2
:1051C00050F01000234908602248006810F01000D9
:1051D00000900098002000901E48006850F01000D9
:1051E0001C4908601B48006810F0100000900098EF
:1051F00000224FF40071184800F096FA0022202196
:10520000164800F091FA00224021144800F08CFA70
:105210004FF400700190012002900220049001A937
:105220000D4800F08BF9202001900120029002200F
:10523000049001A9094800F081F940200190012063
:1052400002900220049001A9044800F077F907B009
:1052500000BD000030380240001C02400010024037
:1052600000B587B0002000904C48006850F0100056
:105270004A4908604948006810F010000090009802
:10528000002000904548006850F010004349086035
:105290004248006810F01000009000980020009034
:1052A0003E48006850F010003C4908603B480068E8
:1052B00010F010000090009800200090374800681F
:1052C00050F01000354908603448006810F01000B4
:1052D00000900098002000903048006850F01000C6
:1052E0002E4908602D48006810F0100000900098CA
:1052F00001200190002002900120039001A928487C
:1053000000F01CF90220019000200290012003907F
:1053100001A9234800F012F9042001900020029016
:105320000120039001A91E4800F008F9082001900F
:10533000002002900120039001A9194800F0FEF816
:1053400010200190002002900120039001A9144830
:1053500000F0F4F807B000BD80B50121104800F05E
:10536000DAF9002801D1012000E0002002BD80B55B
:1053700002210B4800F0CFF9002801D1012000E004
:10538000002002BD80B50421054800F0C4F90028C2
:1053900001D1012000E0002002BD000030380240B1
:1053A00000100240016000210171022141710221BF
:1053B00081710021C171704710B5040094F9050096
:1053C000012821D042D3032827D002D3042809D0B2
:1053D0003CE020688047002803D00020E0710420D2
:1053E000607133E0E0790A30E071E0790A280ADB85
:1053F00020688047002804D00120A071012060713E
:1054000001E00220607121E020688047002803D17C
:105410000020E0710320607118E0E0790A30E0714B
:10542000E0790A2812DB2068804700280CD101208F
:10543000A071022060712079401C20712079FB2826
:1054400004DBFA20207101E00120607110BD49B237
:10545000C90701D5002101710079C0B27047000071
:1054600000B58FB0002000902848006850F001007F
:10547000264908602548006810F001000090009857
:10548000002204211C20FFF745FA1C20FFF753FAE5
:105490005FF080401E49086053201D49486000208D
:1054A0001B4988604FF47A701949C8600020184978
:1054B00008611748FEF722FB4FF480500A900AA9B2
:1054C0001348FEF7DFFC002001900020029001A9A4
:1054D0000F48FFF789F900200390002005900D4840
:1054E0000088049000200790002203A90848FEF7D6
:1054F0009AFC08480088049000200790042203A921
:105500000348FEF790FC0FB000BD00BF40380240DA
:105510006C7A0020D00000200EB400B582B003A940
:10552000009102466B460121034878440A30FCF79B
:10553000A5FE06BC5DF810FBB90B000078B4002492
:1055400000230024002237E00825EDB212F0030604
:10555000F6B2B600B5402C43DFF8EC51960845F89A
:105560002640DFF8E84124689C434D68ED0300D5F0
:105570001C43DFF8D8512C60DFF8D44124689C43E9
:105580004D68AD0300D51C43DFF8C4512C60DFF833
:10559000C44124689C434D68ED0200D51C43DFF8EC
:1055A000B4512C606C4C24689C434D68AD0200D50E
:1055B0001C43694B1C60521C102A80F0AA800123F6
:1055C00013FA02F40B682340A342F4D14C68022C76
:1055D00002D04C68122C15D1D40810EB8404246A34
:1055E0000F2512F00706F6B2B600B540AC430D69C0
:1055F00012F00706F6B2B600B5402C43D50810EB02
:1056000085052C62046803251600F6B27600B540C5
:10561000AC430D7915F003051600F6B27600B540DF
:105620002C4304604C68012C08D04C68022C05D037
:105630004C68112C02D04C68122C17D184680325B9
:105640001600F6B27600B540AC43CD681600F6B24F
:105650007600B5402C438460446801259540AC43F6
:105660004D68C5F3001595402C434460C46803257C
:105670001600F6B27600B540AC438D681600F6B25F
:105680007600B5402C43C4604C68E40093D50024F8
:105690000094324C246854F48044304D2C602F4CDC
:1056A000246814F480440094009C274C950854F816
:1056B00025400F2512F00306F6B2B600B540AC4304
:1056C000274DA84201D100253FE7264DA84201D130
:1056D00001253AE7244DA84201D1022535E7234DA3
:1056E000A84201D1032530E7214DA84201D104256C
:1056F0002BE7204DA84201D1052526E71E4DA842E3
:1057000001D1062521E71D4DA8427FF41DAF0725D5
:105710001BE771BC7047006989B2084201D00120C3
:1057200000E0002040B2704752B2002A02D089B295
:10573000816102E089B2090481617047426989B2DE
:10574000514041617047000008380140003C014071
:10575000043C0140083C01400C3C014044380240FC
:10576000000002400004024000080240000C024019
:10577000001002400014024000180240001C0240C9
:1057800080B50320FFF7C2F8002200217FF00B0054
:10579000FFF7C0F8002200217FF00A00FFF7BAF8F7
:1057A000002200217FF00900FFF7B4F80022002159
:1057B0007FF00400FFF7AEF8002200217FF0030025
:1057C000FFF7A8F8002200217FF00100FFF7A2F800
:1057D00000220F215FF0FF30FFF79CF8002200212C
:1057E0000520FFF797F80520FFF7A5F801BD000099
:1057F00010B50400002C01D1012033E0A06900287D
:10580000FFD194F83900002805D1002084F8380031
:105810002000FFF757FC242084F839002068C06876
:1058200030F400502168C860200000F0C2F8206801
:10583000006930F49040216808612068406930F0C8
:105840002A00216848612068C06850F4005021682F
:10585000C8600020E063202084F83900202084F80C
:105860003A00002010BD2DE9F04182B004000D0087
:1058700016001F005FF0000894F8390020285DD161
:10588000002D02D0B6B2002E01D1012057E094F9CC
:105890003800012801D1022051E0012084F83800AD
:1058A0000020E063212084F83900FFF702FC8046E5
:1058B000A684E68403E02878216848606D1CE08CAB
:1058C000002828D0E08C401EE084A068B0F5805FFE
:1058D00016D10097434600228021200000F031F8C5
:1058E000002801D003202AE02888C005C00D2168C7
:1058F00048602069002801D1AD1CE0E76D1CDEE79F
:105900000097434600228021200000F01AF800286A
:10591000D1D0032013E0009743460022402120000D
:1059200000F00FF8002801D0032008E0202084F8C0
:105930003900002084F83800002000E00220BDE893
:10594000F6812DE9F04104000D0016001F00DDF87E
:105950001880206800682840A84201D1012000E09A
:10596000002076B2B04221D118F1010FF1D0B8F188
:10597000000F04D0FFF79DFBC01B8045E9D22068D3
:10598000C06830F4D0702168C86020684069400861
:10599000400021684861202084F83900202084F8E4
:1059A0003A00002084F83800032000E00020BDE821
:1059B000F0812DE9F041040000202068006930F4F6
:1059C0004050E1680843216808612068C068BC490C
:1059D0000840A1682269114362691143E2691143D9
:1059E00008432168C8602068406930F44070A169AC
:1059F000084321684861E069B0F5004F40F0B0808D
:105A00002068B049884203D02068AF49884253D10A
:105A1000FFF7E6FA8046FFF7E3FA0600FFF7E0FA41
:105A20000700FFF7DDFA0500FFF7DAFA192101FB9D
:105A300008F162685200B1FBF2F16422B1FBF2F1AD
:105A4000192202FB06F263685B00B2FBF3F2192332
:105A500003FB07F366687600B3FBF6F36426B3FB3B
:105A6000F6F3642606FB1322D20032326423B2FB23
:105A7000F3F212F0F802520012EB0111192202FBAC
:105A800005F263685B00B2FBF3F2192358436368C5
:105A90005B00B0FBF3F06423B0FBF3F0642303FB83
:105AA0001020C00032306422B0FBF2F010F007008A
:105AB00040182168886000E1FFF782FA8046FFF70E
:105AC0007FFA0600FFF77CFA0700FFF779FA050076
:105AD000FFF776FA192101FB08F162685200B1FB69
